{"abi":[{"type":"constructor","inputs":[{"name":"_name","type":"string","internalType":"string"},{"name":"_symbol","type":"string","internalType":"string"},{"name":"_decimals","type":"uint8","internalType":"uint8"},{"name":"_version","type":"string","internalType":"string"}],"stateMutability":"nonpayable"},{"type":"function","name":"DOMAIN_SEPARATOR","inputs":[],"outputs":[{"name":"","type":"bytes32","internalType":"bytes32"}],"stateMutability":"view"},{"type":"function","name":"allowance","inputs":[{"name":"","type":"address","internalType":"address"},{"name":"","type":"address","internalType":"address"}],"outputs":[{"name":"","type":"uint256","internalType":"uint256"}],"stateMutability":"view"},{"type":"function","name":"approve","inputs":[{"name":"spender","type":"address","internalType":"address"},{"name":"value","type":"uint256","internalType":"uint256"}],"outputs":[{"name":"","type":"bool","internalType":"bool"}],"stateMutability":"nonpayable"},{"type":"function","name":"authorizationState","inputs":[{"name":"","type":"address","internalType":"address"},{"name":"","type":"bytes32","internalType":"bytes32"}],"outputs":[{"name":"","type":"bool","internalType":"bool"}],"stateMutability":"view"},{"type":"function","name":"balanceOf","inputs":[{"name":"","type":"address","internalType":"address"}],"outputs":[{"name":"","type":"uint256","internalType":"uint256"}],"stateMutability":"view"},{"type":"function","name":"decimals","inputs":[],"outputs":[{"name":"","type":"uint8","internalType":"uint8"}],"stateMutability":"view"},{"type":"function","name":"mint","inputs":[{"name":"to","type":"address","internalType":"address"},{"name":"amount","type":"uint256","internalType":"uint256"}],"outputs":[],"stateMutability":"nonpayable"},{"type":"function","name":"name","inputs":[],"outputs":[{"name":"","type":"string","internalType":"string"}],"stateMutability":"view"},{"type":"function","name":"symbol","inputs":[],"outputs":[{"name":"","type":"string","internalType":"string"}],"stateMutability":"view"},{"type":"function","name":"totalSupply","inputs":[],"outputs":[{"name":"","type":"uint256","internalType":"uint256"}],"stateMutability":"view"},{"type":"function","name":"transfer","inputs":[{"name":"to","type":"address","internalType":"address"},{"name":"value","type":"uint256","internalType":"uint256"}],"outputs":[{"name":"","type":"bool","internalType":"bool"}],"stateMutability":"nonpayable"},{"type":"function","name":"transferFrom","inputs":[{"name":"from","type":"address","internalType":"address"},{"name":"to","type":"address","internalType":"address"},{"name":"value","type":"uint256","internalType":"uint256"}],"outputs":[{"name":"","type":"bool","internalType":"bool"}],"stateMutability":"nonpayable"},{"type":"function","name":"transferWithAuthorization","inputs":[{"name":"from","type":"address","internalType":"address"},{"name":"to","type":"address","internalType":"address"},{"name":"value","type":"uint256","internalType":"uint256"},{"name":"validAfter","type":"uint256","internalType":"uint256"},{"name":"validBefore","type":"uint256","internalType":"uint256"},{"name":"nonce","type":"bytes32","internalType":"bytes32"},{"name":"signature","type":"bytes","internalType":"bytes"}],"outputs":[],"stateMutability":"nonpayable"},{"type":"function","name":"transferWithAuthorization","inputs":[{"name":"from","type":"address","internalType":"address"},{"name":"to","type":"address","internalType":"address"},{"name":"value","type":"uint256","internalType":"uint256"},{"name":"validAfter","type":"uint256","internalType":"uint256"},{"name":"validBefore","type":"uint256","internalType":"uint256"},{"name":"nonce","type":"bytes32","internalType":"bytes32"},{"name":"v","type":"uint8","internalType":"uint8"},{"name":"r","type":"bytes32","internalType":"bytes32"},{"name":"s","type":"bytes32","internalType":"bytes32"}],"outputs":[],"stateMutability":"nonpayable"},{"type":"function","name":"version","inputs":[],"outputs":[{"name":"","type":"string","internalType":"string"}],"stateMutability":"view"},{"type":"event","name":"Approval","inputs":[{"name":"owner","type":"address","indexed":true,"internalType":"address"},{"name":"spender","type":"address","indexed":true,"internalType":"address"},{"name":"value","type":"uint256","indexed":false,"internalType":"uint256"}],"anonymous":false},{"type":"event","name":"AuthorizationUsed","inputs":[{"name":"authorizer","type":"address","indexed":true,"internalType":"address"},{"name":"nonce","type":"bytes32","indexed":true,"internalType":"bytes32"}],"anonymous":false},{"type":"event","name":"Transfer","inputs":[{"name":"from","type":"address","indexed":true,"internalType":"address"},{"name":"to","type":"address","indexed":true,"internalType":"address"},{"name":"value","type":"uint256","indexed":false,"internalType":"uint256"}],"anonymous":false}],"bytecode":{"object":"0x608060405234801561000f575f5ffd5b5060405161240338038061240383398181016040528101906100319190610269565b835f908161003f9190610531565b50826001908161004f9190610531565b508160025f6101000a81548160ff021916908360ff16021790555080600690816100799190610531565b507f8b73c3c69bb8fe3d512ecc4cf759cc79239f7b179b0ffacaa9a75d522b39400f8480519060200120828051906020012046306040516020016100c1959493929190610666565b60405160208183030381529060405280519060200120600881905550505050506106b7565b5f604051905090565b5f5ffd5b5f5ffd5b5f5ffd5b5f5ffd5b5f601f19601f8301169050919050565b7f4e487b71000000000000000000000000000000000000000000000000000000005f52604160045260245ffd5b610145826100ff565b810181811067ffffffffffffffff821117156101645761016361010f565b5b80604052505050565b5f6101766100e6565b9050610182828261013c565b919050565b5f67ffffffffffffffff8211156101a1576101a061010f565b5b6101aa826100ff565b9050602081019050919050565b8281835e5f83830152505050565b5f6101d76101d284610187565b61016d565b9050828152602081018484840111156101f3576101f26100fb565b5b6101fe8482856101b7565b509392505050565b5f82601f83011261021a576102196100f7565b5b815161022a8482602086016101c5565b91505092915050565b5f60ff82169050919050565b61024881610233565b8114610252575f5ffd5b50565b5f815190506102638161023f565b92915050565b5f5f5f5f60808587031215610281576102806100ef565b5b5f85015167ffffffffffffffff81111561029e5761029d6100f3565b5b6102aa87828801610206565b945050602085015167ffffffffffffffff8111156102cb576102ca6100f3565b5b6102d787828801610206565b93505060406102e887828801610255565b925050606085015167ffffffffffffffff811115610309576103086100f3565b5b61031587828801610206565b91505092959194509250565b5f81519050919050565b7f4e487b71000000000000000000000000000000000000000000000000000000005f52602260045260245ffd5b5f600282049050600182168061036f57607f821691505b6020821081036103825761038161032b565b5b50919050565b5f819050815f5260205f209050919050565b5f6020601f8301049050919050565b5f82821b905092915050565b5f600883026103e47fffffffffffffffffffffffffffffffffffffffffffffffffffffffffffffffff826103a9565b6103ee86836103a9565b95508019841693508086168417925050509392505050565b5f819050919050565b5f819050919050565b5f61043261042d61042884610406565b61040f565b610406565b9050919050565b5f819050919050565b61044b83610418565b61045f61045782610439565b8484546103b5565b825550505050565b5f5f905090565b610476610467565b610481818484610442565b505050565b5b818110156104a4576104995f8261046e565b600181019050610487565b5050565b601f8211156104e9576104ba81610388565b6104c38461039a565b810160208510156104d2578190505b6104e66104de8561039a565b830182610486565b50505b505050565b5f82821c905092915050565b5f6105095f19846008026104ee565b1980831691505092915050565b5f61052183836104fa565b9150826002028217905092915050565b61053a82610321565b67ffffffffffffffff8111156105535761055261010f565b5b61055d8254610358565b6105688282856104a8565b5f60209050601f831160018114610599575f8415610587578287015190505b6105918582610516565b8655506105f8565b601f1984166105a786610388565b5f5b828110156105ce578489015182556001820191506020850194506020810190506105a9565b868310156105eb57848901516105e7601f8916826104fa565b8355505b6001600288020188555050505b505050505050565b5f819050919050565b61061281610600565b82525050565b61062181610406565b82525050565b5f73ffffffffffffffffffffffffffffffffffffffff82169050919050565b5f61065082610627565b9050919050565b61066081610646565b82525050565b5f60a0820190506106795f830188610609565b6106866020830187610609565b6106936040830186610609565b6106a06060830185610618565b6106ad6080830184610657565b9695505050505050565b611d3f806106c45f395ff3fe608060405234801561000f575f5ffd5b50600436106100f3575f3560e01c806354fd4d5011610095578063cf09299511610064578063cf09299514610287578063dd62ed3e146102a3578063e3ee160e146102d3578063e94a0102146102ef576100f3565b806354fd4d50146101eb57806370a082311461020957806395d89b4114610239578063a9059cbb14610257576100f3565b806323b872dd116100d157806323b872dd14610163578063313ce567146101935780633644e515146101b157806340c10f19146101cf576100f3565b806306fdde03146100f7578063095ea7b31461011557806318160ddd14610145575b5f5ffd5b6100ff61031f565b60405161010c919061119d565b60405180910390f35b61012f600480360381019061012a919061125b565b6103aa565b60405161013c91906112b3565b60405180910390f35b61014d610497565b60405161015a91906112db565b60405180910390f35b61017d600480360381019061017891906112f4565b61049d565b60405161018a91906112b3565b60405180910390f35b61019b61077d565b6040516101a8919061135f565b60405180910390f35b6101b961078f565b6040516101c69190611390565b60405180910390f35b6101e960048036038101906101e4919061125b565b610795565b005b6101f3610869565b604051610200919061119d565b60405180910390f35b610223600480360381019061021e91906113a9565b6108f5565b60405161023091906112db565b60405180910390f35b61024161090a565b60405161024e919061119d565b60405180910390f35b610271600480360381019061026c919061125b565b610996565b60405161027e91906112b3565b60405180910390f35b6102a1600480360381019061029c919061152a565b610b2c565b005b6102bd60048036038101906102b891906115e3565b610c0c565b6040516102ca91906112db565b60405180910390f35b6102ed60048036038101906102e8919061164b565b610c2c565b005b6103096004803603810190610304919061170f565b611103565b60405161031691906112b3565b60405180910390f35b5f805461032b9061177a565b80601f01602080910402602001604051908101604052809291908181526020018280546103579061177a565b80156103a25780601f10610379576101008083540402835291602001916103a2565b820191905f5260205f20905b81548152906001019060200180831161038557829003601f168201915b505050505081565b5f8160055f3373ffffffffffffffffffffffffffffffffffffffff1673ffffffffffffffffffffffffffffffffffffffff1681526020019081526020015f205f8573ffffffffffffffffffffffffffffffffffffffff1673ffffffffffffffffffffffffffffffffffffffff1681526020019081526020015f20819055508273ffffffffffffffffffffffffffffffffffffffff163373ffffffffffffffffffffffffffffffffffffffff167f8c5be1e5ebec7d5bd14f71427d1e84f3dd0314c0f7b2291e5b200ac8c7c3b9258460405161048591906112db565b60405180910390a36001905092915050565b60035481565b5f8160045f8673ffffffffffffffffffffffffffffffffffffffff1673ffffffffffffffffffffffffffffffffffffffff1681526020019081526020015f2054101561051e576040517f08c379a0000000000000000000000000000000000000000000000000000000008152600401610515906117f4565b60405180910390fd5b8160055f8673ffffffffffffffffffffffffffffffffffffffff1673ffffffffffffffffffffffffffffffffffffffff1681526020019081526020015f205f3373ffffffffffffffffffffffffffffffffffffffff1673ffffffffffffffffffffffffffffffffffffffff1681526020019081526020015f205410156105d9576040517f08c379a00000000000000000000000000000000000000000000000000000000081526004016105d09061185c565b60405180910390fd5b8160045f8673ffffffffffffffffffffffffffffffffffffffff1673ffffffffffffffffffffffffffffffffffffffff1681526020019081526020015f205f82825461062591906118a7565b925050819055508160045f8573ffffffffffffffffffffffffffffffffffffffff1673ffffffffffffffffffffffffffffffffffffffff1681526020019081526020015f205f82825461067891906118da565b925050819055508160055f8673ffffffffffffffffffffffffffffffffffffffff1673ffffffffffffffffffffffffffffffffffffffff1681526020019081526020015f205f3373ffffffffffffffffffffffffffffffffffffffff1673ffffffffffffffffffffffffffffffffffffffff1681526020019081526020015f205f82825461070691906118a7565b925050819055508273ffffffffffffffffffffffffffffffffffffffff168473ffffffffffffffffffffffffffffffffffffffff167fddf252ad1be2c89b69c2b068fc378daa952ba7f163c4a11628f55a4df523b3ef8460405161076a91906112db565b60405180910390a3600190509392505050565b60025f9054906101000a900460ff1681565b60085481565b8060035f8282546107a691906118da565b925050819055508060045f8473ffffffffffffffffffffffffffffffffffffffff1673ffffffffffffffffffffffffffffffffffffffff1681526020019081526020015f205f8282546107f991906118da565b925050819055508173ffffffffffffffffffffffffffffffffffffffff165f73ffffffffffffffffffffffffffffffffffffffff167fddf252ad1be2c89b69c2b068fc378daa952ba7f163c4a11628f55a4df523b3ef8360405161085d91906112db565b60405180910390a35050565b600680546108769061177a565b80601f01602080910402602001604051908101604052809291908181526020018280546108a29061177a565b80156108ed5780601f106108c4576101008083540402835291602001916108ed565b820191905f5260205f20905b8154815290600101906020018083116108d057829003601f168201915b505050505081565b6004602052805f5260405f205f915090505481565b600180546109179061177a565b80601f01602080910402602001604051908101604052809291908181526020018280546109439061177a565b801561098e5780601f106109655761010080835404028352916020019161098e565b820191905f5260205f20905b81548152906001019060200180831161097157829003601f168201915b505050505081565b5f8160045f3373ffffffffffffffffffffffffffffffffffffffff1673ffffffffffffffffffffffffffffffffffffffff1681526020019081526020015f20541015610a17576040517f08c379a0000000000000000000000000000000000000000000000000000000008152600401610a0e906117f4565b60405180910390fd5b8160045f3373ffffffffffffffffffffffffffffffffffffffff1673ffffffffffffffffffffffffffffffffffffffff1681526020019081526020015f205f828254610a6391906118a7565b925050819055508160045f8573ffffffffffffffffffffffffffffffffffffffff1673ffffffffffffffffffffffffffffffffffffffff1681526020019081526020015f205f828254610ab691906118da565b925050819055508273ffffffffffffffffffffffffffffffffffffffff163373ffffffffffffffffffffffffffffffffffffffff167fddf252ad1be2c89b69c2b068fc378daa952ba7f163c4a11628f55a4df523b3ef84604051610b1a91906112db565b60405180910390a36001905092915050565b6041815114610b70576040517f08c379a0000000000000000000000000000000000000000000000000000000008152600401610b6790611957565b60405180910390fd5b5f5f5f602084015192506040840151915060608401515f1a90503073ffffffffffffffffffffffffffffffffffffffff1663e3ee160e8b8b8b8b8b8b888b8b6040518a63ffffffff1660e01b8152600401610bd399989796959493929190611984565b5f604051808303815f87803b158015610bea575f5ffd5b505af1158015610bfc573d5f5f3e3d5ffd5b5050505050505050505050505050565b6005602052815f5260405f20602052805f5260405f205f91509150505481565b854211610c6e576040517f08c379a0000000000000000000000000000000000000000000000000000000008152600401610c6590611a59565b60405180910390fd5b844210610cb0576040517f08c379a0000000000000000000000000000000000000000000000000000000008152600401610ca790611ac1565b60405180910390fd5b60075f8a73ffffffffffffffffffffffffffffffffffffffff1673ffffffffffffffffffffffffffffffffffffffff1681526020019081526020015f205f8581526020019081526020015f205f9054906101000a900460ff1615610d49576040517f08c379a0000000000000000000000000000000000000000000000000000000008152600401610d4090611b29565b60405180910390fd5b5f7f7c7c6cdb67a18743f49ec6fa9b35f50d52ed05cbed4cc592e13b44501c1a22678a8a8a8a8a8a604051602001610d879796959493929190611b47565b6040516020818303038152906040528051906020012090505f60085482604051602001610db5929190611c28565b6040516020818303038152906040528051906020012090505f6001828787876040515f8152602001604052604051610df09493929190611c5e565b6020604051602081039080840390855afa158015610e10573d5f5f3e3d5ffd5b5050506020604051035190505f73ffffffffffffffffffffffffffffffffffffffff168173ffffffffffffffffffffffffffffffffffffffff1614158015610e8357508b73ffffffffffffffffffffffffffffffffffffffff168173ffffffffffffffffffffffffffffffffffffffff16145b610ec2576040517f08c379a0000000000000000000000000000000000000000000000000000000008152600401610eb990611ceb565b60405180910390fd5b600160075f8e73ffffffffffffffffffffffffffffffffffffffff1673ffffffffffffffffffffffffffffffffffffffff1681526020019081526020015f205f8981526020019081526020015f205f6101000a81548160ff021916908315150217905550868c73ffffffffffffffffffffffffffffffffffffffff167f98de503528ee59b575ef0c0a2576a82497bfc029a5685b209e9ec333479b10a560405160405180910390a38960045f8e73ffffffffffffffffffffffffffffffffffffffff1673ffffffffffffffffffffffffffffffffffffffff1681526020019081526020015f20541015610fea576040517f08c379a0000000000000000000000000000000000000000000000000000000008152600401610fe1906117f4565b60405180910390fd5b8960045f8e73ffffffffffffffffffffffffffffffffffffffff1673ffffffffffffffffffffffffffffffffffffffff1681526020019081526020015f205f82825461103691906118a7565b925050819055508960045f8d73ffffffffffffffffffffffffffffffffffffffff1673ffffffffffffffffffffffffffffffffffffffff1681526020019081526020015f205f82825461108991906118da565b925050819055508a73ffffffffffffffffffffffffffffffffffffffff168c73ffffffffffffffffffffffffffffffffffffffff167fddf252ad1be2c89b69c2b068fc378daa952ba7f163c4a11628f55a4df523b3ef8c6040516110ed91906112db565b60405180910390a3505050505050505050505050565b6007602052815f5260405f20602052805f5260405f205f915091509054906101000a900460ff1681565b5f81519050919050565b5f82825260208201905092915050565b8281835e5f83830152505050565b5f601f19601f8301169050919050565b5f61116f8261112d565b6111798185611137565b9350611189818560208601611147565b61119281611155565b840191505092915050565b5f6020820190508181035f8301526111b58184611165565b905092915050565b5f604051905090565b5f5ffd5b5f5ffd5b5f73ffffffffffffffffffffffffffffffffffffffff82169050919050565b5f6111f7826111ce565b9050919050565b611207816111ed565b8114611211575f5ffd5b50565b5f81359050611222816111fe565b92915050565b5f819050919050565b61123a81611228565b8114611244575f5ffd5b50565b5f8135905061125581611231565b92915050565b5f5f60408385031215611271576112706111c6565b5b5f61127e85828601611214565b925050602061128f85828601611247565b9150509250929050565b5f8115159050919050565b6112ad81611299565b82525050565b5f6020820190506112c65f8301846112a4565b92915050565b6112d581611228565b82525050565b5f6020820190506112ee5f8301846112cc565b92915050565b5f5f5f6060848603121561130b5761130a6111c6565b5b5f61131886828701611214565b935050602061132986828701611214565b925050604061133a86828701611247565b9150509250925092565b5f60ff82169050919050565b61135981611344565b82525050565b5f6020820190506113725f830184611350565b92915050565b5f819050919050565b61138a81611378565b82525050565b5f6020820190506113a35f830184611381565b92915050565b5f602082840312156113be576113bd6111c6565b5b5f6113cb84828501611214565b91505092915050565b6113dd81611378565b81146113e7575f5ffd5b50565b5f813590506113f8816113d4565b92915050565b5f5ffd5b5f5ffd5b7f4e487b71000000000000000000000000000000000000000000000000000000005f52604160045260245ffd5b61143c82611155565b810181811067ffffffffffffffff8211171561145b5761145a611406565b5b80604052505050565b5f61146d6111bd565b90506114798282611433565b919050565b5f67ffffffffffffffff82111561149857611497611406565b5b6114a182611155565b9050602081019050919050565b828183375f83830152505050565b5f6114ce6114c98461147e565b611464565b9050828152602081018484840111156114ea576114e9611402565b5b6114f58482856114ae565b509392505050565b5f82601f830112611511576115106113fe565b5b81356115218482602086016114bc565b91505092915050565b5f5f5f5f5f5f5f60e0888a031215611545576115446111c6565b5b5f6115528a828b01611214565b97505060206115638a828b01611214565b96505060406115748a828b01611247565b95505060606115858a828b01611247565b94505060806115968a828b01611247565b93505060a06115a78a828b016113ea565b92505060c088013567ffffffffffffffff8111156115c8576115c76111ca565b5b6115d48a828b016114fd565b91505092959891949750929550565b5f5f604083850312156115f9576115f86111c6565b5b5f61160685828601611214565b925050602061161785828601611214565b9150509250929050565b61162a81611344565b8114611634575f5ffd5b50565b5f8135905061164581611621565b92915050565b5f5f5f5f5f5f5f5f5f6101208a8c031215611669576116686111c6565b5b5f6116768c828d01611214565b99505060206116878c828d01611214565b98505060406116988c828d01611247565b97505060606116a98c828d01611247565b96505060806116ba8c828d01611247565b95505060a06116cb8c828d016113ea565b94505060c06116dc8c828d01611637565b93505060e06116ed8c828d016113ea565b9250506101006116ff8c828d016113ea565b9150509295985092959850929598565b5f5f60408385031215611725576117246111c6565b5b5f61173285828601611214565b9250506020611743858286016113ea565b9150509250929050565b7f4e487b71000000000000000000000000000000000000000000000000000000005f52602260045260245ffd5b5f600282049050600182168061179157607f821691505b6020821081036117a4576117a361174d565b5b50919050565b7f496e73756666696369656e742062616c616e63650000000000000000000000005f82015250565b5f6117de601483611137565b91506117e9826117aa565b602082019050919050565b5f6020820190508181035f83015261180b816117d2565b9050919050565b7f496e73756666696369656e7420616c6c6f77616e6365000000000000000000005f82015250565b5f611846601683611137565b915061185182611812565b602082019050919050565b5f6020820190508181035f8301526118738161183a565b9050919050565b7f4e487b71000000000000000000000000000000000000000000000000000000005f52601160045260245ffd5b5f6118b182611228565b91506118bc83611228565b92508282039050818111156118d4576118d361187a565b5b92915050565b5f6118e482611228565b91506118ef83611228565b92508282019050808211156119075761190661187a565b5b92915050565b7f496e76616c6964207369676e6174757265206c656e67746800000000000000005f82015250565b5f611941601883611137565b915061194c8261190d565b602082019050919050565b5f6020820190508181035f83015261196e81611935565b9050919050565b61197e816111ed565b82525050565b5f610120820190506119985f83018c611975565b6119a5602083018b611975565b6119b2604083018a6112cc565b6119bf60608301896112cc565b6119cc60808301886112cc565b6119d960a0830187611381565b6119e660c0830186611350565b6119f360e0830185611381565b611a01610100830184611381565b9a9950505050505050505050565b7f417574686f72697a6174696f6e206e6f74207965742076616c696400000000005f82015250565b5f611a43601b83611137565b9150611a4e82611a0f565b602082019050919050565b5f6020820190508181035f830152611a7081611a37565b9050919050565b7f417574686f72697a6174696f6e206578706972656400000000000000000000005f82015250565b5f611aab601583611137565b9150611ab682611a77565b602082019050919050565b5f6020820190508181035f830152611ad881611a9f565b9050919050565b7f417574686f72697a6174696f6e20616c726561647920757365640000000000005f82015250565b5f611b13601a83611137565b9150611b1e82611adf565b602082019050919050565b5f6020820190508181035f830152611b4081611b07565b9050919050565b5f60e082019050611b5a5f83018a611381565b611b676020830189611975565b611b746040830188611975565b611b8160608301876112cc565b611b8e60808301866112cc565b611b9b60a08301856112cc565b611ba860c0830184611381565b98975050505050505050565b5f81905092915050565b7f19010000000000000000000000000000000000000000000000000000000000005f82015250565b5f611bf2600283611bb4565b9150611bfd82611bbe565b600282019050919050565b5f819050919050565b611c22611c1d82611378565b611c08565b82525050565b5f611c3282611be6565b9150611c3e8285611c11565b602082019150611c4e8284611c11565b6020820191508190509392505050565b5f608082019050611c715f830187611381565b611c7e6020830186611350565b611c8b6040830185611381565b611c986060830184611381565b95945050505050565b7f496e76616c6964207369676e61747572650000000000000000000000000000005f82015250565b5f611cd5601183611137565b9150611ce082611ca1565b602082019050919050565b5f6020820190508181035f830152611d0281611cc9565b905091905056fea2646970667358221220fe2648376fcecbc9814b4af692926efa27e4900f1b8fb9ff52a2e7cb56a1684864736f6c634300081c0033","linkReferences":{}},"methodIdentifiers":{"DOMAIN_SEPARATOR()":"3644e515","allowance(address,address)":"dd62ed3e","approve(address,uint256)":"095ea7b3","authorizationState(address,bytes32)":"e94a0102","balanceOf(address)":"70a08231","decimals()":"313ce567","mint(address,uint256)":"40c10f19","name()":"06fdde03","symbol()":"95d89b41","totalSupply()":"18160ddd","transfer(address,uint256)":"a9059cbb","transferFrom(address,address,uint256)":"23b872dd","transferWithAuthorization(address,address,uint256,uint256,uint256,bytes32,bytes)":"cf092995","transferWithAuthorization(address,address,uint256,uint256,uint256,bytes32,uint8,bytes32,bytes32)":"e3ee160e","version()":"54fd4d50"},"id":0}