{"abi":[{"type":"constructor","inputs":[{"name":"_registrationFee","type":"uint256","internalType":"uint256"},{"name":"_messageFee","type":"uint256","internalType":"uint256"},{"name":"_hubFeeBps","type":"uint256","internalType":"uint256"}],"stateMutability":"nonpayable"},{"type":"function","name":"MAX_CHAIN_ID","inputs":[],"outputs":[{"name":"","type":"uint64","internalType":"uint64"}],"stateMutability":"view"},{"type":"function","name":"MAX_MESSAGE_SIZE","inputs":[],"outputs":[{"name":"","type":"uint256","internalType":"uint256"}],"stateMutability":"view"},{"type":"function","name":"acknowledgeMessages","inputs":[{"name":"chainId","type":"uint64","internalType":"uint64"},{"name":"processedUpToMessageId","type":"uint64","internalType":"uint64"},{"name":"messagesRoot","type":"bytes32","internalType":"bytes32"}],"outputs":[],"stateMutability":"nonpayable"},{"type":"function","name":"anchor","inputs":[{"name":"chainId","type":"uint64","internalType":"uint64"},{"name":"blockNumber","type":"uint64","internalType":"uint64"},{"name":"stateRoot","type":"bytes32","internalType":"bytes32"},{"name":"txRoot","type":"bytes32","internalType":"bytes32"},{"name":"receiptRoot","type":"bytes32","internalType":"bytes32"},{"name":"processedUpToMessageId","type":"uint64","internalType":"uint64"},{"name":"extraData","type":"bytes","internalType":"bytes"}],"outputs":[],"stateMutability":"nonpayable"},{"type":"function","name":"anchors","inputs":[{"name":"","type":"uint64","internalType":"uint64"},{"name":"","type":"uint64","internalType":"uint64"}],"outputs":[{"name":"stateRoot","type":"bytes32","internalType":"bytes32"},{"name":"txRoot","type":"bytes32","internalType":"bytes32"},{"name":"receiptRoot","type":"bytes32","internalType":"bytes32"},{"name":"timestamp","type":"uint256","internalType":"uint256"},{"name":"extraData","type":"bytes","internalType":"bytes"}],"stateMutability":"view"},{"type":"function","name":"appChains","inputs":[{"name":"","type":"uint64","internalType":"uint64"}],"outputs":[{"name":"owner","type":"address","internalType":"address"},{"name":"sequencer","type":"address","internalType":"address"},{"name":"latestBlock","type":"uint64","internalType":"uint64"},{"name":"lastProcessedMessageId","type":"uint64","internalType":"uint64"},{"name":"nextMessageId","type":"uint64","internalType":"uint64"},{"name":"registered","type":"bool","internalType":"bool"}],"stateMutability":"view"},{"type":"function","name":"authorizedSenders","inputs":[{"name":"","type":"uint64","internalType":"uint64"},{"name":"","type":"address","internalType":"address"}],"outputs":[{"name":"","type":"bool","internalType":"bool"}],"stateMutability":"view"},{"type":"function","name":"getAnchor","inputs":[{"name":"chainId","type":"uint64","internalType":"uint64"},{"name":"blockNumber","type":"uint64","internalType":"uint64"}],"outputs":[{"name":"stateRoot","type":"bytes32","internalType":"bytes32"},{"name":"txRoot","type":"bytes32","internalType":"bytes32"},{"name":"receiptRoot","type":"bytes32","internalType":"bytes32"},{"name":"timestamp","type":"uint256","internalType":"uint256"},{"name":"extraData","type":"bytes","internalType":"bytes"}],"stateMutability":"view"},{"type":"function","name":"getAppChainInfo","inputs":[{"name":"chainId","type":"uint64","internalType":"uint64"}],"outputs":[{"name":"owner","type":"address","internalType":"address"},{"name":"sequencer","type":"address","internalType":"address"},{"name":"latestBlock","type":"uint64","internalType":"uint64"},{"name":"lastProcessedMessageId","type":"uint64","internalType":"uint64"},{"name":"nextMessageId","type":"uint64","internalType":"uint64"},{"name":"registered","type":"bool","internalType":"bool"}],"stateMutability":"view"},{"type":"function","name":"getMessage","inputs":[{"name":"chainId","type":"uint64","internalType":"uint64"},{"name":"messageId","type":"uint64","internalType":"uint64"}],"outputs":[{"name":"sourceChainId","type":"uint64","internalType":"uint64"},{"name":"sender","type":"address","internalType":"address"},{"name":"target","type":"address","internalType":"address"},{"name":"data","type":"bytes","internalType":"bytes"},{"name":"timestamp","type":"uint256","internalType":"uint256"}],"stateMutability":"view"},{"type":"function","name":"getMessageRange","inputs":[{"name":"chainId","type":"uint64","internalType":"uint64"},{"name":"fromId","type":"uint64","internalType":"uint64"},{"name":"toId","type":"uint64","internalType":"uint64"}],"outputs":[{"name":"","type":"tuple[]","internalType":"struct AppChainHub.Message[]","components":[{"name":"sourceChainId","type":"uint64","internalType":"uint64"},{"name":"sender","type":"address","internalType":"address"},{"name":"targetChainId","type":"uint64","internalType":"uint64"},{"name":"target","type":"address","internalType":"address"},{"name":"data","type":"bytes","internalType":"bytes"},{"name":"timestamp","type":"uint256","internalType":"uint256"}]}],"stateMutability":"view"},{"type":"function","name":"getMessageRootCheckpoint","inputs":[{"name":"chainId","type":"uint64","internalType":"uint64"}],"outputs":[{"name":"processedUpToMessageId","type":"uint64","internalType":"uint64"},{"name":"merkleRoot","type":"bytes32","internalType":"bytes32"}],"stateMutability":"view"},{"type":"function","name":"hubBalance","inputs":[],"outputs":[{"name":"","type":"uint256","internalType":"uint256"}],"stateMutability":"view"},{"type":"function","name":"hubFeeBps","inputs":[],"outputs":[{"name":"","type":"uint256","internalType":"uint256"}],"stateMutability":"view"},{"type":"function","name":"hubOwner","inputs":[],"outputs":[{"name":"","type":"address","internalType":"address"}],"stateMutability":"view"},{"type":"function","name":"messageFee","inputs":[],"outputs":[{"name":"","type":"uint256","internalType":"uint256"}],"stateMutability":"view"},{"type":"function","name":"messageRootCheckpoints","inputs":[{"name":"","type":"uint64","internalType":"uint64"}],"outputs":[{"name":"processedUpToMessageId","type":"uint64","internalType":"uint64"},{"name":"merkleRoot","type":"bytes32","internalType":"bytes32"}],"stateMutability":"view"},{"type":"function","name":"messages","inputs":[{"name":"","type":"uint64","internalType":"uint64"},{"name":"","type":"uint64","internalType":"uint64"}],"outputs":[{"name":"sourceChainId","type":"uint64","internalType":"uint64"},{"name":"sender","type":"address","internalType":"address"},{"name":"targetChainId","type":"uint64","internalType":"uint64"},{"name":"target","type":"address","internalType":"address"},{"name":"data","type":"bytes","internalType":"bytes"},{"name":"timestamp","type":"uint256","internalType":"uint256"}],"stateMutability":"view"},{"type":"function","name":"ownerBalances","inputs":[{"name":"","type":"uint64","internalType":"uint64"}],"outputs":[{"name":"","type":"uint256","internalType":"uint256"}],"stateMutability":"view"},{"type":"function","name":"pendingMessageCount","inputs":[{"name":"chainId","type":"uint64","internalType":"uint64"}],"outputs":[{"name":"","type":"uint64","internalType":"uint64"}],"stateMutability":"view"},{"type":"function","name":"registerAppChain","inputs":[{"name":"chainId","type":"uint64","internalType":"uint64"},{"name":"sequencer","type":"address","internalType":"address"},{"name":"sequencerSignature","type":"bytes","internalType":"bytes"}],"outputs":[],"stateMutability":"payable"},{"type":"function","name":"registrationFee","inputs":[],"outputs":[{"name":"","type":"uint256","internalType":"uint256"}],"stateMutability":"view"},{"type":"function","name":"sendMessage","inputs":[{"name":"sourceChainId","type":"uint64","internalType":"uint64"},{"name":"targetChainId","type":"uint64","internalType":"uint64"},{"name":"target","type":"address","internalType":"address"},{"name":"data","type":"bytes","internalType":"bytes"}],"outputs":[],"stateMutability":"payable"},{"type":"function","name":"setAuthorizedSender","inputs":[{"name":"chainId","type":"uint64","internalType":"uint64"},{"name":"sender","type":"address","internalType":"address"},{"name":"authorized","type":"bool","internalType":"bool"}],"outputs":[],"stateMutability":"nonpayable"},{"type":"function","name":"setHubFeeBps","inputs":[{"name":"newBps","type":"uint256","internalType":"uint256"}],"outputs":[],"stateMutability":"nonpayable"},{"type":"function","name":"setMessageFee","inputs":[{"name":"newFee","type":"uint256","internalType":"uint256"}],"outputs":[],"stateMutability":"nonpayable"},{"type":"function","name":"setRegistrationFee","inputs":[{"name":"newFee","type":"uint256","internalType":"uint256"}],"outputs":[],"stateMutability":"nonpayable"},{"type":"function","name":"setSequencer","inputs":[{"name":"chainId","type":"uint64","internalType":"uint64"},{"name":"newSequencer","type":"address","internalType":"address"}],"outputs":[],"stateMutability":"nonpayable"},{"type":"function","name":"setVerifier","inputs":[{"name":"chainId","type":"uint64","internalType":"uint64"},{"name":"verifier","type":"address","internalType":"address"}],"outputs":[],"stateMutability":"nonpayable"},{"type":"function","name":"transferAppChainOwnership","inputs":[{"name":"chainId","type":"uint64","internalType":"uint64"},{"name":"newOwner","type":"address","internalType":"address"}],"outputs":[],"stateMutability":"nonpayable"},{"type":"function","name":"transferHubOwnership","inputs":[{"name":"newOwner","type":"address","internalType":"address"}],"outputs":[],"stateMutability":"nonpayable"},{"type":"function","name":"updateMetadata","inputs":[{"name":"chainId","type":"uint64","internalType":"uint64"},{"name":"name","type":"string","internalType":"string"},{"name":"description","type":"string","internalType":"string"},{"name":"url","type":"string","internalType":"string"}],"outputs":[],"stateMutability":"nonpayable"},{"type":"function","name":"verifiers","inputs":[{"name":"","type":"uint64","internalType":"uint64"}],"outputs":[{"name":"","type":"address","internalType":"address"}],"stateMutability":"view"},{"type":"function","name":"verifyAnchor","inputs":[{"name":"chainId","type":"uint64","internalType":"uint64"},{"name":"blockNumber","type":"uint64","internalType":"uint64"},{"name":"stateRoot","type":"bytes32","internalType":"bytes32"},{"name":"txRoot","type":"bytes32","internalType":"bytes32"},{"name":"receiptRoot","type":"bytes32","internalType":"bytes32"}],"outputs":[{"name":"","type":"bool","internalType":"bool"}],"stateMutability":"view"},{"type":"function","name":"verifyAnchorProof","inputs":[{"name":"chainId","type":"uint64","internalType":"uint64"},{"name":"blockNumber","type":"uint64","internalType":"uint64"},{"name":"proof","type":"bytes","internalType":"bytes"}],"outputs":[{"name":"","type":"bool","internalType":"bool"}],"stateMutability":"view"},{"type":"function","name":"verifyMessageInclusion","inputs":[{"name":"chainId","type":"uint64","internalType":"uint64"},{"name":"proof","type":"bytes32[]","internalType":"bytes32[]"},{"name":"sourceChainId","type":"uint64","internalType":"uint64"},{"name":"messageId","type":"uint64","internalType":"uint64"},{"name":"txHash","type":"bytes32","internalType":"bytes32"},{"name":"success","type":"bool","internalType":"bool"},{"name":"dataHash","type":"bytes32","internalType":"bytes32"}],"outputs":[{"name":"","type":"bool","internalType":"bool"}],"stateMutability":"view"},{"type":"function","name":"withdrawFees","inputs":[{"name":"chainId","type":"uint64","internalType":"uint64"}],"outputs":[],"stateMutability":"nonpayable"},{"type":"function","name":"withdrawHubFees","inputs":[],"outputs":[],"stateMutability":"nonpayable"},{"type":"event","name":"Anchored","inputs":[{"name":"chainId","type":"uint64","indexed":true,"internalType":"uint64"},{"name":"blockNumber","type":"uint64","indexed":true,"internalType":"uint64"},{"name":"stateRoot","type":"bytes32","indexed":false,"internalType":"bytes32"},{"name":"txRoot","type":"bytes32","indexed":false,"internalType":"bytes32"},{"name":"receiptRoot","type":"bytes32","indexed":false,"internalType":"bytes32"},{"name":"processedUpToMessageId","type":"uint64","indexed":false,"internalType":"uint64"}],"anonymous":false},{"type":"event","name":"AppChainMetadataUpdated","inputs":[{"name":"chainId","type":"uint64","indexed":true,"internalType":"uint64"},{"name":"name","type":"string","indexed":false,"internalType":"string"},{"name":"description","type":"string","indexed":false,"internalType":"string"},{"name":"url","type":"string","indexed":false,"internalType":"string"}],"anonymous":false},{"type":"event","name":"AppChainRegistered","inputs":[{"name":"chainId","type":"uint64","indexed":true,"internalType":"uint64"},{"name":"owner","type":"address","indexed":true,"internalType":"address"},{"name":"sequencer","type":"address","indexed":false,"internalType":"address"}],"anonymous":false},{"type":"event","name":"AuthorizedSenderChanged","inputs":[{"name":"chainId","type":"uint64","indexed":true,"internalType":"uint64"},{"name":"sender","type":"address","indexed":true,"internalType":"address"},{"name":"authorized","type":"bool","indexed":false,"internalType":"bool"}],"anonymous":false},{"type":"event","name":"HubFeeBpsChanged","inputs":[{"name":"oldBps","type":"uint256","indexed":false,"internalType":"uint256"},{"name":"newBps","type":"uint256","indexed":false,"internalType":"uint256"}],"anonymous":false},{"type":"event","name":"HubOwnerChanged","inputs":[{"name":"oldOwner","type":"address","indexed":true,"internalType":"address"},{"name":"newOwner","type":"address","indexed":true,"internalType":"address"}],"anonymous":false},{"type":"event","name":"MessageFeeChanged","inputs":[{"name":"oldFee","type":"uint256","indexed":false,"internalType":"uint256"},{"name":"newFee","type":"uint256","indexed":false,"internalType":"uint256"}],"anonymous":false},{"type":"event","name":"MessageSent","inputs":[{"name":"targetChainId","type":"uint64","indexed":true,"internalType":"uint64"},{"name":"messageId","type":"uint64","indexed":true,"internalType":"uint64"},{"name":"sourceChainId","type":"uint64","indexed":false,"internalType":"uint64"},{"name":"sender","type":"address","indexed":false,"internalType":"address"},{"name":"target","type":"address","indexed":false,"internalType":"address"},{"name":"data","type":"bytes","indexed":false,"internalType":"bytes"}],"anonymous":false},{"type":"event","name":"MessagesAcknowledged","inputs":[{"name":"chainId","type":"uint64","indexed":true,"internalType":"uint64"},{"name":"processedUpToMessageId","type":"uint64","indexed":true,"internalType":"uint64"},{"name":"messagesRoot","type":"bytes32","indexed":false,"internalType":"bytes32"}],"anonymous":false},{"type":"event","name":"RegistrationFeeChanged","inputs":[{"name":"oldFee","type":"uint256","indexed":false,"internalType":"uint256"},{"name":"newFee","type":"uint256","indexed":false,"internalType":"uint256"}],"anonymous":false},{"type":"event","name":"SequencerChanged","inputs":[{"name":"chainId","type":"uint64","indexed":true,"internalType":"uint64"},{"name":"oldSequencer","type":"address","indexed":true,"internalType":"address"},{"name":"newSequencer","type":"address","indexed":true,"internalType":"address"}],"anonymous":false},{"type":"event","name":"VerifierChanged","inputs":[{"name":"chainId","type":"uint64","indexed":true,"internalType":"uint64"},{"name":"oldVerifier","type":"address","indexed":true,"internalType":"address"},{"name":"newVerifier","type":"address","indexed":true,"internalType":"address"}],"anonymous":false}],"bytecode":{"object":"0x60806040523480156200001157600080fd5b5060405162003492380380620034928339810160408190526200003491620000af565b6127108111156200008b5760405162461bcd60e51b815260206004820152601a60248201527f487562206665652063616e6e6f74206578636565642031303025000000000000604482015260640160405180910390fd5b600080546001600160a01b03191633179055600192909255600255600355620000de565b600080600060608486031215620000c557600080fd5b8351925060208401519150604084015190509250925092565b6133a480620000ee6000396000f3fe6080604052600436106102255760003560e01c80636e816ff211610123578063c1645314116100ab578063dd4a49461161006f578063dd4a494614610820578063e793997e14610840578063e91821bf14610856578063ea4b8dbe14610876578063fc838a6d1461089657600080fd5b8063c164531414610726578063c17fb2d914610753578063c320c72714610773578063d9e76a0e14610793578063db723fe41461080b57600080fd5b8063875f5127116100f2578063875f51271461069057806397d340f5146106b05780639c7eb413146106c65780639c8413c5146106e6578063b4950bfe1461070657600080fd5b80636e816ff2146105af5780637833bc9e146105e15780637b74cf42146106015780638195408d1461064257600080fd5b806332f2fb5d116101b15780635bc105c0116101755780635bc105c0146104b05780635dc171fc146104e35780635f594a1d1461050357806364c0f5b71461056257806364c5e9fc1461058257600080fd5b806332f2fb5d146104085780633b0d2b3a146104435780633e802451146104565780634bd68ff3146104695780635b36cfb31461049a57600080fd5b80631d2f37f4116101f85780631d2f37f4146102bb57806322262be21461037757806323aa2a9d146103a857806325233a73146103c857806328361cb4146103e857600080fd5b80630700e9391461022a57806314c44e091461025f5780631a90a219146102835780631b75470214610299575b600080fd5b34801561023657600080fd5b5061024a610245366004612896565b6108b6565b60405190151581526020015b60405180910390f35b34801561026b57600080fd5b5061027560015481565b604051908152602001610256565b34801561028f57600080fd5b5061027560025481565b3480156102a557600080fd5b506102b96102b43660046128fa565b610921565b005b3480156102c757600080fd5b5061032e6102d6366004612915565b6006602052600090815260409020805460018201546002909201546001600160a01b039182169291821691600160a01b90046001600160401b039081169181811691600160401b82041690600160801b900460ff1686565b604080516001600160a01b0397881681529690951660208701526001600160401b03938416948601949094529082166060850152166080830152151560a082015260c001610256565b34801561038357600080fd5b50610397610392366004612930565b6109f5565b6040516102569594939291906129a9565b3480156103b457600080fd5b506102b96103c33660046129d4565b610ae2565b3480156103d457600080fd5b506103976103e3366004612930565b610b4d565b3480156103f457600080fd5b506102b96104033660046129ed565b610c18565b34801561041457600080fd5b5061024a6104233660046129ed565b600960209081526000928352604080842090915290825290205460ff1681565b6102b9610451366004612a5f565b610cda565b6102b9610464366004612ad4565b6110fc565b34801561047557600080fd5b50610489610484366004612930565b6114de565b604051610256959493929190612b34565b3480156104a657600080fd5b5061027560035481565b3480156104bc57600080fd5b506104cb6001600160401b0381565b6040516001600160401b039091168152602001610256565b3480156104ef57600080fd5b506102b96104fe366004612b81565b6115e3565b34801561050f57600080fd5b5061054361051e366004612915565b600b60205260009081526040902080546001909101546001600160401b039091169082565b604080516001600160401b039093168352602083019190915201610256565b34801561056e57600080fd5b506102b961057d3660046129d4565b61167a565b34801561058e57600080fd5b506105a261059d366004612c2b565b611737565b6040516102569190612c6e565b3480156105bb57600080fd5b506105cf6105ca366004612930565b6119e4565b60405161025696959493929190612d2e565b3480156105ed57600080fd5b506104cb6105fc366004612915565b611aca565b34801561060d57600080fd5b5061054361061c366004612915565b6001600160401b039081166000908152600b602052604090208054600190910154911691565b34801561064e57600080fd5b5061067861065d366004612915565b600a602052600090815260409020546001600160a01b031681565b6040516001600160a01b039091168152602001610256565b34801561069c57600080fd5b5061024a6106ab366004612d85565b611b34565b3480156106bc57600080fd5b5061027561280081565b3480156106d257600080fd5b50600054610678906001600160a01b031681565b3480156106f257600080fd5b506102b96107013660046129ed565b611c21565b34801561071257600080fd5b506102b9610721366004612915565b611ccc565b34801561073257600080fd5b50610275610741366004612915565b60056020526000908152604090205481565b34801561075f57600080fd5b506102b961076e366004612dce565b611db5565b34801561077f57600080fd5b506102b961078e3660046129d4565b611e6e565b34801561079f57600080fd5b5061032e6107ae366004612915565b6001600160401b039081166000908152600660205260409020805460018201546002909201546001600160a01b039182169491831693600160a01b90930483169281811692600160401b830490911691600160801b900460ff1690565b34801561081757600080fd5b506102b9611ed9565b34801561082c57600080fd5b506102b961083b366004612e15565b611f7f565b34801561084c57600080fd5b5061027560045481565b34801561086257600080fd5b506102b96108713660046129ed565b612277565b34801561088257600080fd5b506102b9610891366004612ea6565b61236f565b3480156108a257600080fd5b5061024a6108b1366004612ee2565b612596565b6001600160401b0380861660009081526007602090815260408083209388168352929052908120600381015482036108f2576000915050610918565b8054851480156109055750838160010154145b80156109145750828160020154145b9150505b95945050505050565b6000546001600160a01b031633146109545760405162461bcd60e51b815260040161094b90612fac565b60405180910390fd5b6001600160a01b03811661099a5760405162461bcd60e51b815260206004820152600d60248201526c24b73b30b634b21037bbb732b960991b604482015260640161094b565b600080546040516001600160a01b03808516939216917f2e80184708c5a99cacf69e4aa7ede211a702d70f57ee0a0a5d6b0fa6fd58ed9991a3600080546001600160a01b0319166001600160a01b0392909216919091179055565b6001600160401b038083166000908152600760209081526040808320938516835292905290812080546001820154600283015460038401546004850180548796879687966060969295919490938190610a4d90612fd4565b80601f0160208091040260200160405190810160405280929190818152602001828054610a7990612fd4565b8015610ac65780601f10610a9b57610100808354040283529160200191610ac6565b820191906000526020600020905b815481529060010190602001808311610aa957829003601f168201915b5050505050905095509550955095509550509295509295909350565b6000546001600160a01b03163314610b0c5760405162461bcd60e51b815260040161094b90612fac565b60025460408051918252602082018390527f75216b1d396cfe75ed6e393fdc44bf269deb1bfc9c8f7832858436bac93af9c0910160405180910390a1600255565b600760205281600052604060002060205280600052604060002060009150915050806000015490806001015490806002015490806003015490806004018054610b9590612fd4565b80601f0160208091040260200160405190810160405280929190818152602001828054610bc190612fd4565b8015610c0e5780601f10610be357610100808354040283529160200191610c0e565b820191906000526020600020905b815481529060010190602001808311610bf157829003601f168201915b5050505050905085565b6001600160401b03821660009081526006602052604090205482906001600160a01b03163314610c5a5760405162461bcd60e51b815260040161094b9061300e565b6001600160a01b038216610ca05760405162461bcd60e51b815260206004820152600d60248201526c24b73b30b634b21037bbb732b960991b604482015260640161094b565b506001600160401b0391909116600090815260066020526040902080546001600160a01b0319166001600160a01b03909216919091179055565b6001600160401b038416600090815260066020526040902060020154600160801b900460ff16610d4c5760405162461bcd60e51b815260206004820152601e60248201527f54617267657420417070436861696e206e6f7420726567697374657265640000604482015260640161094b565b6001600160401b038416600090815260096020908152604080832033845290915290205460ff16610db05760405162461bcd60e51b815260206004820152600e60248201526d139bdd08185d5d1a1bdc9a5e995960921b604482015260640161094b565b600254341015610df55760405162461bcd60e51b815260206004820152601060248201526f496e73756666696369656e742066656560801b604482015260640161094b565b612800811115610e3b5760405162461bcd60e51b81526020600482015260116024820152704d65737361676520746f6f206c6172676560781b604482015260640161094b565b6001600160a01b038316610e825760405162461bcd60e51b815260206004820152600e60248201526d125b9d985b1a59081d185c99d95d60921b604482015260640161094b565b60025460035460009061271090610e999084613051565b610ea39190613068565b9050610eaf818361308a565b6001600160401b03871660009081526005602052604081208054909190610ed790849061309d565b925050819055508060046000828254610ef0919061309d565b909155505034821015610f3557336108fc610f0b843461308a565b6040518115909202916000818181858888f19350505050158015610f33573d6000803e3d6000fd5b505b6001600160401b0380871660008181526006602090815260409182902060020154825160c0810184528c861681523381840152808401949094526001600160a01b038a1660608501528251601f8901839004830281018301909352878352600160401b90049093169260808301919088908890819084018382808284376000920182905250938552505042602093840152506001600160401b038a81168252600883526040808320868316845284529182902084518154948601519083166001600160e01b031995861617600160401b6001600160a01b039283168102919091178355938601516001830180546060890151929095169490961693909317921690920217909155608082015160028201906110509082613115565b5060a091909101516003909101556110698160016131d4565b6001600160401b03808916600081815260066020526040908190206002018054948416600160401b026fffffffffffffffff00000000000000001990951694909417909355915190831691907f59ef14149ebcbe39d69e62280f0fe39ce0b0e881198729e7e4058731a86210e2906110ea908c9033908c908c908c90613224565b60405180910390a35050505050505050565b6001543410156111415760405162461bcd60e51b815260206004820152601060248201526f496e73756666696369656e742066656560801b604482015260640161094b565b6001600160401b038416600090815260066020526040902060020154600160801b900460ff16156111a95760405162461bcd60e51b8152602060048201526012602482015271105b1c9958591e481c9959da5cdd195c995960721b604482015260640161094b565b6001600160a01b0383166111f35760405162461bcd60e51b815260206004820152601160248201527024b73b30b634b21039b2b8bab2b731b2b960791b604482015260640161094b565b6040805160c086901b6001600160c01b0319166020808301919091523360601b6bffffffffffffffffffffffff191660288301528251601c818403018152603c830184528051908201207f19457468657265756d205369676e6564204d6573736167653a0a333200000000605c84015260788084018290528451808503909101815260989093019093528151910120846001600160a01b0316611297828686612672565b6001600160a01b0316146112ed5760405162461bcd60e51b815260206004820152601b60248201527f496e76616c69642073657175656e636572207369676e61747572650000000000604482015260640161094b565b6040518060c00160405280336001600160a01b03168152602001866001600160a01b0316815260200160006001600160401b0316815260200160006001600160401b0316815260200160016001600160401b031681526020016001151581525060066000886001600160401b03166001600160401b0316815260200190815260200160002060008201518160000160006101000a8154816001600160a01b0302191690836001600160a01b0316021790555060208201518160010160006101000a8154816001600160a01b0302191690836001600160a01b0316021790555060408201518160010160146101000a8154816001600160401b0302191690836001600160401b0316021790555060608201518160020160006101000a8154816001600160401b0302191690836001600160401b0316021790555060808201518160020160086101000a8154816001600160401b0302191690836001600160401b0316021790555060a08201518160020160106101000a81548160ff0219169083151502179055509050503460046000828254611488919061309d565b90915550506040516001600160a01b038616815233906001600160401b038816907f8bf851bc10dec00bab1561be70f92acb4ef635cd9a56bf89c406683c502c90809060200160405180910390a3505050505050565b6001600160401b0380831660009081526008602090815260408083208585168452909152812080546001820154600383015460028401805495968796879660609688969195938116946001600160a01b03600160401b928390048116959290930490921692829061154e90612fd4565b80601f016020809104026020016040519081016040528092919081815260200182805461157a90612fd4565b80156115c75780601f1061159c576101008083540402835291602001916115c7565b820191906000526020600020905b8154815290600101906020018083116115aa57829003601f168201915b5050505050915095509550955095509550509295509295909350565b6001600160401b03871660009081526006602052604090205487906001600160a01b031633146116255760405162461bcd60e51b815260040161094b9061300e565b876001600160401b03167f0e0d143dd0995a482258a1eaf734b823c31965bedce2b9cc4302878924b0d8fc88888888888860405161166896959493929190613260565b60405180910390a25050505050505050565b6000546001600160a01b031633146116a45760405162461bcd60e51b815260040161094b90612fac565b6127108111156116f65760405162461bcd60e51b815260206004820152601a60248201527f487562206665652063616e6e6f74206578636565642031303025000000000000604482015260640161094b565b60035460408051918252602082018390527fbd79c6b9c45f246d7dd4ad0de4f08af92eee53b5b99aa0408150831b18251403910160405180910390a1600355565b6060826001600160401b0316826001600160401b0316101561178b5760405162461bcd60e51b815260206004820152600d60248201526c496e76616c69642072616e676560981b604482015260640161094b565b606461179784846132a9565b6001600160401b031611156117e05760405162461bcd60e51b815260206004820152600f60248201526e52616e676520746f6f206c6172676560881b604482015260640161094b565b60006117ec84846132a9565b6001600160401b03166001600160401b0381111561180c5761180c6130b0565b60405190808252806020026020018201604052801561186b57816020015b6040805160c081018252600080825260208083018290529282018190526060808301829052608083015260a0820152825260001990920191018161182a5790505b509050835b836001600160401b0316816001600160401b031610156119db576001600160401b0380871660009081526008602090815260408083208585168452825291829020825160c081018452815480861682526001600160a01b03600160401b918290048116948301949094526001830154958616948201949094529290930416606082015260028201805491929160808401919061190b90612fd4565b80601f016020809104026020016040519081016040528092919081815260200182805461193790612fd4565b80156119845780601f1061195957610100808354040283529160200191611984565b820191906000526020600020905b81548152906001019060200180831161196757829003601f168201915b505050505081526020016003820154815250508286836119a491906132a9565b6001600160401b0316815181106119bd576119bd6132c9565b602002602001018190525080806119d3906132df565b915050611870565b50949350505050565b60086020908152600092835260408084209091529082529020805460018201546002830180546001600160401b03808516956001600160a01b03600160401b968790048116969286169592909204909116929091611a4190612fd4565b80601f0160208091040260200160405190810160405280929190818152602001828054611a6d90612fd4565b8015611aba5780601f10611a8f57610100808354040283529160200191611aba565b820191906000526020600020905b815481529060010190602001808311611a9d57829003601f168201915b5050505050908060030154905086565b6001600160401b03811660009081526006602052604081206002810154600160801b900460ff16611afe5750600092915050565b6002810154600190611b23906001600160401b0380821691600160401b9004166132a9565b611b2d91906132a9565b9392505050565b6001600160401b038085166000908152600760209081526040808320938716835292905290812060038101548203611b70576000915050611c19565b6001600160401b0386166000908152600a60205260409020546001600160a01b031680611ba257600192505050611c19565b81546040516312c572c160e11b81526001600160a01b0383169163258ae58291611bd3919089908990600401613305565b602060405180830381865afa158015611bf0573d6000803e3d6000fd5b505050506040513d601f19601f82011682018060405250810190611c14919061331f565b925050505b949350505050565b6001600160401b03821660009081526006602052604090205482906001600160a01b03163314611c635760405162461bcd60e51b815260040161094b9061300e565b6001600160401b0383166000818152600a602052604080822080546001600160a01b038781166001600160a01b0319831681179093559251921693909284927f74c9f6a469ec79fac4b72093254b51b1b353f2dc19763f0a39213f66d0be53439190a450505050565b6001600160401b03811660009081526006602052604090205481906001600160a01b03163314611d0e5760405162461bcd60e51b815260040161094b9061300e565b6001600160401b03821660009081526005602052604090205480611d6a5760405162461bcd60e51b81526020600482015260136024820152724e6f206665657320746f20776974686472617760681b604482015260640161094b565b6001600160401b03831660009081526005602052604080822082905551339183156108fc02918491818181858888f19350505050158015611daf573d6000803e3d6000fd5b50505050565b6001600160401b03831660009081526006602052604090205483906001600160a01b03163314611df75760405162461bcd60e51b815260040161094b9061300e565b6001600160401b03841660008181526009602090815260408083206001600160a01b03881680855290835292819020805460ff191687151590811790915590519081529192917ffd520afa7f1ec855f030c4a3f6f7b97a6a8d51dda19dbc3da6aed9c5e4f3dec8910160405180910390a350505050565b6000546001600160a01b03163314611e985760405162461bcd60e51b815260040161094b90612fac565b60015460408051918252602082018390527f72071ceb13e0088702b0aa4b4ca2419810b96f85b26a8d059a60d289c59ea7a9910160405180910390a1600155565b6000546001600160a01b03163314611f035760405162461bcd60e51b815260040161094b90612fac565b60045480611f495760405162461bcd60e51b81526020600482015260136024820152724e6f206665657320746f20776974686472617760681b604482015260640161094b565b60006004819055604051339183156108fc02918491818181858888f19350505050158015611f7b573d6000803e3d6000fd5b5050565b6001600160401b03881660009081526006602052604090206001015488906001600160a01b03163314611fe55760405162461bcd60e51b815260206004820152600e60248201526d27b7363c9039b2b8bab2b731b2b960911b604482015260640161094b565b6001600160401b03808a16600090815260066020526040902060018101549091600160a01b9091048116908a16116120555760405162461bcd60e51b8152602060048201526013602482015272213637b1b59036bab9ba103132903732bbb2b960691b604482015260640161094b565b60028101546001600160401b0390811690861610156120b65760405162461bcd60e51b815260206004820152601a60248201527f43616e6e6f7420756e2d70726f63657373206d65737361676573000000000000604482015260640161094b565b60028101546001600160401b03600160401b90910481169086161061211d5760405162461bcd60e51b815260206004820152601e60248201527f43616e6e6f742070726f6365737320667574757265206d657373616765730000604482015260640161094b565b6040518060a0016040528089815260200188815260200187815260200142815260200185858080601f01602080910402602001604051908101604052809392919081815260200183838082843760009201829052509390945250506001600160401b03808e168252600760209081526040808420928f1684529181529181902084518155918401516001830155830151600282015560608301516003820155608083015190915060048201906121d39082613115565b50505060018101805467ffffffffffffffff60a01b1916600160a01b6001600160401b038c81169182029290921790925560028301805467ffffffffffffffff1916888316908117909155604080518c8152602081018c90529081018a90526060810191909152908c16907f7616c081d4b6c3dad4399416f25781f7e8436eb3814807c223fe8af91f1742119060800160405180910390a350505050505050505050565b6001600160401b03821660009081526006602052604090205482906001600160a01b031633146122b95760405162461bcd60e51b815260040161094b9061300e565b6001600160a01b0382166123035760405162461bcd60e51b815260206004820152601160248201527024b73b30b634b21039b2b8bab2b731b2b960791b604482015260640161094b565b6001600160401b03831660008181526006602052604080822060010180546001600160a01b038781166001600160a01b0319831681179093559251921693909284927fb2458c7320af0d8d19232df6f80df4786f55d032bbd5fcd0ca203fcd6cef175d9190a450505050565b6001600160401b03831660009081526006602052604090206001015483906001600160a01b031633146123d55760405162461bcd60e51b815260206004820152600e60248201526d27b7363c9039b2b8bab2b731b2b960911b604482015260640161094b565b6001600160401b03841660009081526006602052604090206002810154600160801b900460ff166124395760405162461bcd60e51b815260206004820152600e60248201526d139bdd081c9959da5cdd195c995960921b604482015260640161094b565b60028101546001600160401b03908116908516101561249a5760405162461bcd60e51b815260206004820152601a60248201527f43616e6e6f7420756e2d70726f63657373206d65737361676573000000000000604482015260640161094b565b60028101546001600160401b03600160401b9091048116908516106125015760405162461bcd60e51b815260206004820152601e60248201527f43616e6e6f742070726f6365737320667574757265206d657373616765730000604482015260640161094b565b6002810180546001600160401b0386811667ffffffffffffffff19928316811790935560408051808201825284815260208082018981528b85166000818152600b845285902093518454961695909616949094178255925160019190910155518681527fbcafd30db48ae496c1029bffb8758587a0dd7e81dc27796af7fe5fa310309c74910160405180910390a35050505050565b6001600160401b0388166000908152600b6020526040812060010154806125ff5760405162461bcd60e51b815260206004820152601c60248201527f4e6f206d657373616765732061636b6e6f776c65646765642079657400000000604482015260640161094b565b6040516001600160c01b031960c089811b8216602084015288901b1660288201526030810186905284151560f81b6050820152605181018490526000906071016040516020818303038152906040528051906020012090506126638a8a84846127f7565b9b9a5050505050505050505050565b6000604182146126c45760405162461bcd60e51b815260206004820152601860248201527f496e76616c6964207369676e6174757265206c656e6774680000000000000000604482015260640161094b565b82356020840135604085013560001a601b8110156126ea576126e7601b8261333c565b90505b8060ff16601b14806126ff57508060ff16601c145b6127415760405162461bcd60e51b815260206004820152601360248201527224b73b30b634b21039b4b3b730ba3ab932903b60691b604482015260640161094b565b604080516000808252602082018084528a905260ff841692820192909252606081018590526080810184905260019060a0016020604051602081039080840390855afa158015612795573d6000803e3d6000fd5b5050604051601f1901519150506001600160a01b0381166127ec5760405162461bcd60e51b8152602060048201526011602482015270496e76616c6964207369676e617475726560781b604482015260640161094b565b979650505050505050565b600081815b8581101561283a576128268288888481811061281a5761281a6132c9565b90506020020135612846565b91508061283281613355565b9150506127fc565b50909214949350505050565b6000818310612862576000828152602084905260409020612871565b60008381526020839052604090205b90505b92915050565b80356001600160401b038116811461289157600080fd5b919050565b600080600080600060a086880312156128ae57600080fd5b6128b78661287a565b94506128c56020870161287a565b94979496505050506040830135926060810135926080909101359150565b80356001600160a01b038116811461289157600080fd5b60006020828403121561290c57600080fd5b612871826128e3565b60006020828403121561292757600080fd5b6128718261287a565b6000806040838503121561294357600080fd5b61294c8361287a565b915061295a6020840161287a565b90509250929050565b6000815180845260005b818110156129895760208185018101518683018201520161296d565b506000602082860101526020601f19601f83011685010191505092915050565b85815284602082015283604082015282606082015260a0608082015260006127ec60a0830184612963565b6000602082840312156129e657600080fd5b5035919050565b60008060408385031215612a0057600080fd5b612a098361287a565b915061295a602084016128e3565b60008083601f840112612a2957600080fd5b5081356001600160401b03811115612a4057600080fd5b602083019150836020828501011115612a5857600080fd5b9250929050565b600080600080600060808688031215612a7757600080fd5b612a808661287a565b9450612a8e6020870161287a565b9350612a9c604087016128e3565b925060608601356001600160401b03811115612ab757600080fd5b612ac388828901612a17565b969995985093965092949392505050565b60008060008060608587031215612aea57600080fd5b612af38561287a565b9350612b01602086016128e3565b925060408501356001600160401b03811115612b1c57600080fd5b612b2887828801612a17565b95989497509550505050565b6001600160401b03861681526001600160a01b0385811660208301528416604082015260a060608201819052600090612b6f90830185612963565b90508260808301529695505050505050565b60008060008060008060006080888a031215612b9c57600080fd5b612ba58861287a565b965060208801356001600160401b0380821115612bc157600080fd5b612bcd8b838c01612a17565b909850965060408a0135915080821115612be657600080fd5b612bf28b838c01612a17565b909650945060608a0135915080821115612c0b57600080fd5b50612c188a828b01612a17565b989b979a50959850939692959293505050565b600080600060608486031215612c4057600080fd5b612c498461287a565b9250612c576020850161287a565b9150612c656040850161287a565b90509250925092565b60006020808301818452808551808352604092508286019150828160051b87010184880160005b83811015612d2057888303603f19018552815180516001600160401b039081168552888201516001600160a01b039081168a87015288830151909116888601526060808301519091169085015260808082015160c08287018190529190612cfe83880182612963565b60a0948501519790940196909652505094870194925090860190600101612c95565b509098975050505050505050565b6001600160401b0387811682526001600160a01b03878116602084015290861660408301528416606082015260c060808201819052600090612d7290830185612963565b90508260a0830152979650505050505050565b60008060008060608587031215612d9b57600080fd5b612da48561287a565b9350612b016020860161287a565b8015158114612dc057600080fd5b50565b803561289181612db2565b600080600060608486031215612de357600080fd5b612dec8461287a565b9250612dfa602085016128e3565b91506040840135612e0a81612db2565b809150509250925092565b60008060008060008060008060e0898b031215612e3157600080fd5b612e3a8961287a565b9750612e4860208a0161287a565b9650604089013595506060890135945060808901359350612e6b60a08a0161287a565b925060c08901356001600160401b03811115612e8657600080fd5b612e928b828c01612a17565b999c989b5096995094979396929594505050565b600080600060608486031215612ebb57600080fd5b612ec48461287a565b9250612ed26020850161287a565b9150604084013590509250925092565b60008060008060008060008060e0898b031215612efe57600080fd5b612f078961287a565b975060208901356001600160401b0380821115612f2357600080fd5b818b0191508b601f830112612f3757600080fd5b813581811115612f4657600080fd5b8c60208260051b8501011115612f5b57600080fd5b602083019950809850505050612f7360408a0161287a565b9450612f8160608a0161287a565b935060808901359250612f9660a08a01612dc3565b915060c089013590509295985092959890939650565b6020808252600e908201526d27b7363c90343ab11037bbb732b960911b604082015260600190565b600181811c90821680612fe857607f821691505b60208210810361300857634e487b7160e01b600052602260045260246000fd5b50919050565b60208082526013908201527227b7363c9020b83821b430b4b71037bbb732b960691b604082015260600190565b634e487b7160e01b600052601160045260246000fd5b80820281158282048414176128745761287461303b565b60008261308557634e487b7160e01b600052601260045260246000fd5b500490565b818103818111156128745761287461303b565b808201808211156128745761287461303b565b634e487b7160e01b600052604160045260246000fd5b601f82111561311057600081815260208120601f850160051c810160208610156130ed5750805b601f850160051c820191505b8181101561310c578281556001016130f9565b5050505b505050565b81516001600160401b0381111561312e5761312e6130b0565b6131428161313c8454612fd4565b846130c6565b602080601f831160018114613177576000841561315f5750858301515b600019600386901b1c1916600185901b17855561310c565b600085815260208120601f198616915b828110156131a657888601518255948401946001909101908401613187565b50858210156131c45787850151600019600388901b60f8161c191681555b5050505050600190811b01905550565b6001600160401b038181168382160190808211156131f4576131f461303b565b5092915050565b81835281816020850137506000828201602090810191909152601f909101601f19169091010190565b6001600160401b03861681526001600160a01b038581166020830152841660408201526080606082018190526000906127ec90830184866131fb565b60608152600061327460608301888a6131fb565b82810360208401526132878187896131fb565b9050828103604084015261329c8185876131fb565b9998505050505050505050565b6001600160401b038281168282160390808211156131f4576131f461303b565b634e487b7160e01b600052603260045260246000fd5b60006001600160401b038083168181036132fb576132fb61303b565b6001019392505050565b8381526040602082015260006109186040830184866131fb565b60006020828403121561333157600080fd5b8151611b2d81612db2565b60ff81811683821601908111156128745761287461303b565b6000600182016133675761336761303b565b506001019056fea264697066735822122047bf4ec3315bfcf14e0c76909f5c2ebd6f0153edb1c28fc0da0da61ecf53873664736f6c63430008130033","linkReferences":{}},"methodIdentifiers":{"MAX_CHAIN_ID()":"5bc105c0","MAX_MESSAGE_SIZE()":"97d340f5","acknowledgeMessages(uint64,uint64,bytes32)":"ea4b8dbe","anchor(uint64,uint64,bytes32,bytes32,bytes32,uint64,bytes)":"dd4a4946","anchors(uint64,uint64)":"25233a73","appChains(uint64)":"1d2f37f4","authorizedSenders(uint64,address)":"32f2fb5d","getAnchor(uint64,uint64)":"22262be2","getAppChainInfo(uint64)":"d9e76a0e","getMessage(uint64,uint64)":"4bd68ff3","getMessageRange(uint64,uint64,uint64)":"64c5e9fc","getMessageRootCheckpoint(uint64)":"7b74cf42","hubBalance()":"e793997e","hubFeeBps()":"5b36cfb3","hubOwner()":"9c7eb413","messageFee()":"1a90a219","messageRootCheckpoints(uint64)":"5f594a1d","messages(uint64,uint64)":"6e816ff2","ownerBalances(uint64)":"c1645314","pendingMessageCount(uint64)":"7833bc9e","registerAppChain(uint64,address,bytes)":"3e802451","registrationFee()":"14c44e09","sendMessage(uint64,uint64,address,bytes)":"3b0d2b3a","setAuthorizedSender(uint64,address,bool)":"c17fb2d9","setHubFeeBps(uint256)":"64c0f5b7","setMessageFee(uint256)":"23aa2a9d","setRegistrationFee(uint256)":"c320c727","setSequencer(uint64,address)":"e91821bf","setVerifier(uint64,address)":"9c8413c5","transferAppChainOwnership(uint64,address)":"28361cb4","transferHubOwnership(address)":"1b754702","updateMetadata(uint64,string,string,string)":"5dc171fc","verifiers(uint64)":"8195408d","verifyAnchor(uint64,uint64,bytes32,bytes32,bytes32)":"0700e939","verifyAnchorProof(uint64,uint64,bytes)":"875f5127","verifyMessageInclusion(uint64,bytes32[],uint64,uint64,bytes32,bool,bytes32)":"fc838a6d","withdrawFees(uint64)":"b4950bfe","withdrawHubFees()":"db723fe4"},"id":1}